:0400000080317528AE
:1000060002347E14803100308600003087002000E4
:10001600101E0E280F2822282700191E1328142820
:10002600172819122000D2012700131C1B281C2890
:100036002028131001302000D200200010122100C9
:10004600911E2628272861282000911E2B282C285F
:10005600612823009D1C3028312833281D121D16C7
:100066001908F00070082000A3007908253E8600D4
:100076008701700881000130F9071F307906031DDA
:100086004528462848280130A4000A30700603197E
:100096004D284E2854280D307006031D5328542829
:1000A60056280130A400240803195A285B28612821
:1000B6007908253E860087018101F9012000111C7F
:1000C60065286628732811100130F8070630780273
:1000D600031C6E286F287328F8011B100130A1003D
:1000E6007E10090080317728803103208031D200CC
:1000F600F801F901203084000030850025308F3169
:10010600D12780317E10200080318928703032005E
:10011600990023008C018E018731132780318F319E
:10012600DE2780318731D02780318F31ED2780312E
:100136008F31D7278031C8300032890B9F2808308D
:10014600F1007030F2008731EF2780312000A000E7
:1001560020080319AF28B028DD2820030319B42886
:10016600B528DD28B930F2008630F30085316D25DB
:1001760080314B30F100200020088431AB248031DF
:100186004B30F2000030F30085316D25803173303D
:10019600F2008630F30085316D2580310130200074
:1001A600A0000830F1007030F2002008F30086311C
:1001B600D02680310030F1007030F2008731EF2711
:1001C60080312000A20022080319EA28EB2817290B
:1001D60022030319EF28F0281729A230F2008630EF
:1001E600F30085316D2580314730F100200022086B
:1001F6008431AB2480314730F2000030F300853182
:100206006D2580315430F2008730F30085316D253D
:1002160080312000A2010030F1007030F200220887
:10022600F3008631D0268031200022088331AF23A7
:1002360080314730F100200022088431AB24803120
:100246008B30F2008630F30085316D2580317C30AD
:10025600F2008730F30085316D2580314730F2009A
:100266000030F30085316D2580314B30F1002000E0
:1002760020088431AB2480316830F2008730F300E7
:1002860085316D2580314B30F2000030F300853129
:100296006D2580310B178B1720002308031954296D
:1002A60055295B2923088F31F62780312000A301C9
:1002B600520803195F29602965295203031D642921
:1002C60065299C298230F700DE30890B6829F70BF7
:1002D6006829200052088731292780312000CF0065
:1002E6004F08031D7729782999295208031D7C296F
:1002F6007D298429A030F2008730F30085316D25F1
:10030600803120005203031D89298A299129B030A2
:10031600F2008730F30085316D25803120005208C8
:100326008331AF2380318F31E527803102302000C1
:10033600D20024080319A029A1297E2BA40131305B
:10034600F1008830F2002530F30084317E248031BC
:1003560072082000D1007108D00050085104031D16
:10036600B529B629C529A030F2008730F3008531BA
:100376006D25803100308331AF2380318F31E52701
:1003860080314F293630F1008830F2002530F300F5
:1003960084317E24803172082000D1007108D0009B
:1003A60050085104031DD829D929E529B030F20097
:1003B6008730F30085316D25803101308331AF23DD
:1003C6008031C1291130F1008830F2002530F30068
:1003D60084317E24803172082000D1007108D0005B
:1003E60050085104031DF829F929012A8B30F2001F
:1003F6008630F30085316D2580314F293B30F10081
:100406008830F2002530F30084317E248031720872
:100416002000D1007108D00050085104031D142A91
:10042600152A2F2A2208031D192A1A2A212AA03042
:10043600F2008730F30085316D25803120002203DC
:10044600031D262A272A4F29B030F2008730F300F1
:1004560085316D2580314F292530F1008830F20035
:100466002530F30084317E24803172082000D100CB
:100476007108D00050085104031D422A432A452A18
:100486000100442A1830F1008830F2002530F300CC
:1004960084317E24803172082000D1007108D0009A
:1004A60050085104031D582A592A732A2008031D8F
:1004B6005D2A5E2A652AC030F2008730F300853156
:1004C6006D25803120002003031D6A2A6B2A4F29DF
:1004D600E030F2008730F30085316D2580314F29F9
:1004E6000830F1008830F2002530F30084317E2494
:1004F600803172082000D1007108D00050085104E4
:10050600031D862A872AB72A0130A000F101F10AC5
:10051600220886315A268031E030F2008730F30017
:1005260085316D2580310830F1007030F200873159
:10053600EF2780312000CF004F0820060319A42A98
:10054600A52A4F29DA30F2008530F30085316D2572
:1005560080310830F1007030F20020002008F300EE
:100566008631D02680314F29FE30F1008730F200E7
:100576002530F30084317E24803172082000D100BA
:100586007108D00050085104031DCA2ACB2AF42A48
:10059600A001F101003086315A268031F101013087
:1005A60086315A268031C030F2008730F30085311B
:1005B6006D2580310830F1007030F2008731EF2769
:1005C60080312000CF004F0820060319EB2AEC2AC1
:1005D6004F29F430F2008530F30085316D258031E6
:1005E600AC2A2B30F1008830F2002530F30084313C
:1005F6007E24803172082000D1007108D0001F309F
:10060600F1008830F2002530F30084317E248031F9
:1006160072082000C6007108C5005008510403196D
:10062600152B162B1C2B45084604031D1B2B1C2BB8
:10063600712BFD30F2008630F30085316D25803157
:100646003F30F2008730F30085316D25803113305D
:10065600F2008430F30085316D258031E730F200F9
:100666008630F30085316D2580312830F2008630E2
:10067600F30085316D2580314130F2008630F3007C
:1006860085316D2580312630F2008530F3008531C5
:100696006D2580314A30F2008530F30085316D25B5
:1006A60080310130F2008530F30085316D258031CF
:1006B600D830F2008430F30085316D258031A530C5
:1006C600F2008530F30085316D2580318A30F200E5
:1006D6008530F30085316D2580314F29500851044E
:1006E6000319762B772B7E2B8F30F2008730F300A1
:1006F60085316D258031200021080319832B842B39
:100706004F29A1010030F1007030F2008731EF2748
:1007160080312000CF004F0822060319932B942B1B
:10072600A52BC030F2008530F30085316D25803170
:100736000030F1007030F20020002208F30086310C
:10074600D02680310330F30020002208843147246C
:1007560080314F2980317528F4007408031DB42BAD
:10076600B52BD82B2000A201003086310E2683310E
:100776004130F300EE30890BBE2BF30BBE2B00325B
:10078600023086310E268331200020080319CC2B37
:10079600CD2BD82BF101F10A003086315A26833150
:1007A600F101013086315A2683317403031DDC2B97
:1007B600DD2B012C01302000A200013086310E26EF
:1007C60083314130F300EE30890BE72BF30BE72B37
:1007D6000032023086310E268331200020080319AC
:1007E600F52BF62B012CF101003086315A26833188
:1007F600F101F10A013086315A268331080030347E
:10080600313432343334343435343634373438349E
:100816003934413442344334443445344634003464
:100826002A34493444344E343F3420342D34203471
:10083600673465347434203464346534763469340A
:100846006334653420346834613472346434773404
:10085600613472346534203461346E346434203447
:1008660073346F3466347434773461347234653477
:1008760020347234653476346934733469346F34B1
:100886006E342E340A340034F600F501652CF1017D
:10089600F10A760886315A2684318230F400DE3039
:1008A600890B532CF40B532CF101760886315A260A
:1008B60084318230F400DE30890B5F2CF40B5F2C20
:1008C6000130F50773087502031C6A2C6B2C4A2C41
:1008D600200020080319702C712C782CF101F10AE4
:1008E600760886315A2684317D2CF10176088631C8
:1008F6005A2684310800852C0130F1070030F23D7C
:100906000130F307730886008701710884007208B6
:10091600850000080106031D912C922C9B2C710862
:100926008400720885001200031D9A2C9B2C7F2CD4
:1009360071088400720885000008F40073088600B8
:10094600870101087402F100F201031CF20308009A
:10095600F3007108860087017308F2000430F2364E
:10096600890BB22C72080F39023E840084300318BA
:10097600013E850000088100710A86008701730820
:100986000F39023E840084300318013E85000008BA
:1009960081007108023E860087010A3081007108D5
:1009A600033E86008701810108004C3445344434F7
:1009B60053343F3420342D34203467346534743452
:1009C600203477346834653474346834653472346A
:1009D60020346C34653464347334203461347234B6
:1009E600653420346F346E3420346F3472342034DE
:1009F6006F34663466342E340A3400344C3445344D
:100A06004434533420344F344634463420342D3461
:100A160020347434753472346E3420346F34663452
:100A2600663420346C3465346434203469346E346E
:100A36006434693463346134743469346F346E34C5
:100A46002E340A340034433448343F3420342D34B1
:100A560020346734653474342034733465346C342C
:100A660065346334743465346434203463346834F0
:100A760061346E346E3465346C3420346E347534BF
:100A86006D346234653472342E340A3400344C3496
:100A960045344434533420344F344E3420342D34CA
:100AA60020347434753472346E3420346F346E34BA
:100AB60020346C3465346434203469346E346434E0
:100AC600693463346134743469346F346E342E346B
:100AD6000A340034F5017508720784007308031898
:100AE600013E85001200031D792D7A2D7B2D892D5F
:100AF60075087207840073080318013E8500000814
:100B06008F31F62785310130F5076E2D0800483400
:100B160045344C34503420342D3420346434693414
:100B2600733470346C3461347934203474346834FA
:100B3600693473342034683465346C3470342E343C
:100B46000A340034683465346C34703420342D34FF
:100B5600203464346934733470346C3461347934D9
:100B6600203474346834693473342034683465341A
:100B76006C3470342E340A3400340A3431342E3452
:100B8600203453346134763469346E346734203417
:100B960069346E34203445344534503452344F343D
:100BA6004D3420342E342E342E340A3400340A3494
:100BB60032342E34203453346134763469346E340E
:100BC6006734203469346E34203445344534503427
:100BD60052344F344D3420342E342E342E340A34CD
:100BE60000340A3433342E342034533461347634AA
:100BF60069346E346734203469346E3420344534B5
:100C06004534503452344F344D3420342E342E343F
:100C16002E340A340034F1001C2E22000C150E105E
:100C2600272E22000C110E14272E22000C110E1056
:100C3600272E7108003A0319102E013A0319142EB3
:100C4600033A0319182E272E08004334483430344B
:100C560020342D342034733465346C346534633475
:100C6600743420346334683461346E346E346534DD
:100C76006C34203430342E340A340034433448344F
:100C8600313420342D342034733465346C34653477
:100C96006334743420346334683461346E346E34AF
:100CA60065346C34203431342E340A340034F20086
:100CB6006A2E710C2200031C8E1203188E16722ED9
:100CC600710C2200031C8E1103188E15722E7208E9
:100CD600003A03195C2E013A0319632E722E08009E
:100CE600443465346634613475346C347434693430
:100CF6006E346734203474346F3420346C34653485
:100D06006434733420346F346E3421340A3400343E
:100D16000A344434753461346C34413455345834AF
:100D26002C346834773431342E3430342C347334E4
:100D3600773431342E3431340A340D3400343134BE
:100D46002E34203445344534503452344F344D34E7
:100D5600203472346534613464342034653472343A
:100D660072346F34723421342034003432342E34E9
:100D7600203445344534503452344F344D342034C5
:100D860072346534613464342034653472347234B8
:100D96006F34723421342034003431001517710851
:100DA60091007208920073089300151595128B1323
:100DB60055309600AA30960095149518E32EE42E29
:100DC600E02E8B17151108002A345234533454344C
:100DD60020342D34203472346534733465347434DD
:100DE60020346434653476346934633465342E349F
:100DF6000A3400340A3453347534703470346F3422
:100E06007234743465346434203463346F346D342E
:100E16006D3461346E34643473343A340A340034D5
:100E260021008E100E1514303D00A10012303C003A
:100E3600A40023009F151E159C0167309B009D177B
:100E46009E161D162100911611120800F100352F6D
:100E560020000E0E0139F2003D2F20000C0801394A
:100E6600F2003D2F7108003A03192B2F013A03199E
:100E7600302F3D2F720808002D342D342D342D349B
:100E86002D342D342D342D342D342D342D342D3454
:100E96002D342D342D342D342D342D342D340A3467
:100EA6000034443465346634613475346C347434D7
:100EB60069346E346734203474346F3420344334E8
:100EC6004834303421340A3400344C3465346434C4
:100ED6007334203465346E34613462346C34653472
:100EE6006434203466346C34613467343A342034E4
:100EF6000034533465346C34653463347434653487
:100F0600643420346334683461346E346E3465344A
:100F16006C343A34203400340A34573472346F3423
:100F26006E346734203463346F346D346D34613419
:100F36006E34643421340A3400340A344334483479
:100F460030342034733465346C346534633474342B
:100F56006534643421340A3400340A344334483462
:100F660031342034733465346C346534633474340A
:100F76006534643421340A3400340A344C3445343C
:100F860044345334203461347234653420346F343D
:100F96006634663421340A34003421000E160C14EB
:100FA60024000C140E16270012141816111017120E
:100FB600131019122100101608000A344C34453457
:100FC60044345334203461347234653420346F34FD
:100FD6006E3421340A34003431001517710891003B
:100FE6007208920015141518F92FFA2FF62F130808
:100FF600F300730808004C34453444345334203429
:101006004F34463446340A3400344C344534443480
:10101600533420344F344E340A3400342A3449349D
:1010260044344E343F340A3400344C34453444346A
:1010360053343F340A340034483445344C34503445
:101046000A3400342A345234533454340A340034C3
:10105600683465346C3470340A34003443344834AC
:1010660030340A3400344334483431340A340034DA
:0A107600433448343F340A34003498
:101FA200640080010131890BD22F003421000E1010
:101FB2000C1122000C110E10080021008E128E113D
:101FC20022008E128E11080020001B10F8019A01C7
:101FD200990111101B140800303020009B00990158
:101FE2009A011110210011140800F1002000111EA5
:0E1FF200FB2FFC2FF72F710823009A00080028
:020000040001F9
:04000E00EA3FF13F95
:02001400FF3FAC
:00000001FF
