:0400000080317528AE
:100008007E14803100308600003087002000101EEA
:100018000E280F2822282700191E1328142817280D
:1000280019122000CB012700131C1B281C2820288C
:10003800131001302000CB00200010122100911E67
:100048002628272861282000911E2B282C28612883
:1000580023009D1C3028312833281D121D1619082D
:10006800F00070082000A2007908243E860087016D
:10007800700881000130F9071F307906031D4528F3
:10008800462848280130A3000A30700603194D2875
:100098004E2854280D307006031D5328542856281E
:1000A8000130A300230803195A285B28612879081E
:1000B800243E860087018101F9012000111C652872
:1000C8006628732811100130F80706307802031CDF
:1000D8006E286F287328F8011B100130A0007E10CD
:1000E80009008031772884318C248031CB00F801D5
:1000F800F9012030840000308500243084317724D1
:1001080080317E10200080318928703032009900BB
:1001180023008C018E018331C9238031843163240B
:10012800803184312324803184314B2480318431DF
:100138006A248031C8300032890B9F2884313324E7
:1001480080312000A10021080319AB28AC28CC2855
:1001580021030319B028B128CC287230F20082306C
:10016800F30083311E2380314430F1002000210840
:100178008231C62280314430F2000030F3008331EE
:100188001E2380312000A101210883319C23803166
:100198002000210882311A2280314430F1002000E9
:1001A80021088231C62280318530F2008330F30085
:1001B80083311E238031DF30F2008330F300833136
:1001C8001E2380314430F2000030F30083311E23B7
:1001D80080310B178B17200022080319F428F52803
:1001E800FB2822088431412480312000A2014B08D9
:1001F8000319FF28002905294B03031D0429052994
:100208003C298230F700DE30890B0829F70B0829D2
:1002180020004B088331B32380312000C8004808F0
:10022800031D1729182939294B08031D1C291D29C5
:1002380024290330F2008430F30083311E238031F7
:1002480020004B03031D29292A2931291330F200E4
:100258008430F30083311E23803120004B08823123
:100268001A22803184315424803102302000CB009E
:100278002308031940294129F229A3017D30F100FF
:100288008430F2002430F3008231992280317208E0
:100298002000CA007108C90049084A04031D5529ED
:1002A800562965290330F2008430F30083311E2378
:1002B8008031003082311A228031843154248031D7
:1002C800EF288230F1008430F2002430F3008231CC
:1002D8009922803172082000CA007108C9004908B3
:1002E8004A04031D7829792985291330F2008430BE
:1002F800F30083311E238031013082311A2280318C
:1003080061295C30F1008430F2002430F30082313E
:100318009922803172082000CA007108C900490872
:100328004A04031D98299929A1298530F2008330B0
:10033800F30083311E238031EF288730F1008430A9
:10034800F2002430F30082319922803172082000B3
:10035800CA007108C90049084A04031DB429B5290F
:10036800CF292108031DB929BA29C1290330F20070
:100378008430F30083311E23803120002103031DC4
:10038800C629C729EF281330F2008430F3008331DF
:100398001E238031EF287130F1008430F2002430C0
:1003A800F30082319922803172082000CA00710856
:1003B800C90049084A04031DE229E329E529010087
:1003C800E42949084A040319EA29EB29F229F230F9
:1003D800F2008330F30083311E238031200020088F
:1003E8000319F729F829EF28A00184313324803133
:1003F8002000C800480821060319032A042A102AE5
:100408006E30F2008330F30083311E2380312000E8
:10041800210883319C2380310330F3002000210818
:100428008231F3228031EF2880317528F400740876
:10043800031D1F2A202A3D2A2000A10100308331F4
:100448003B2382314130F300EE30890B292AF30B2C
:10045800292A0032023083313B238231F101F10A2B
:100468000030833155238231F10101308331552326
:1004780082317403031D412A422A602A0130200078
:10048800A100013083313B2382314130F300EE304B
:10049800890B4C2AF30B4C2A0032023083313B2360
:1004A8008231F1010030833155238231F101F10AA3
:1004B80001308331552382310800303431343234ED
:1004C80033343434353436343734383439344134C9
:1004D8004234433444344534463400344534453496
:1004E800503452344F344D342034723465346134CE
:1004F800643420346534723472346F347234213485
:100508002034443465346634613475346C3474345E
:1005180069346E346734203474346F34203443348F
:100528004834303421340A340034A02A0130F10729
:100538000030F23D0130F307730886008701710827
:1005480084007208850000080106031DAC2AAD2A44
:10055800B62A71088400720885001200031DB52AA6
:10056800B62A9A2A71088400720885000008F400E7
:1005780073088600870101087402F100F201031C68
:10058800F2030800F3007108860087017308F2007F
:100598000430F236890BCD2A72080F39613E840087
:1005A80082300318013E850000088100710A860028
:1005B800870173080F39613E840082300318013EB9
:1005C8008500000881007108023E860087010A3014
:1005D80081007108033E8600870181010800F6004A
:1005E800F501112BF101F10A760883315523823187
:1005F8008230F400DE30890BFF2AF40BFF2AF10168
:1006080076088331552382318230F400DE30890B3D
:100618000B2BF40B0B2B0130F50773087502031C29
:10062800162B172BF62AF101F10A76088331552388
:1006380082310800F50175087207840073080318F1
:10064800013E85001200031D2A2B2B2B2C2B3A2B45
:1006580075087207840073080318013E85000008B6
:100668008431412483310130F5071F2B0800F10044
:10067800492B22000C150E10542B22000C110E14BD
:10068800542B22000C110E10542B7108003A031938
:100698003D2B013A0319412B033A0319452B542BDF
:1006A8000800F200652B710C2200031C8E1203183F
:1006B8008E166D2B710C2200031C8E1103188E15DB
:1006C8006D2B7208003A0319572B013A03195E2B58
:1006D8006D2B08000A3453346134763469346E342F
:1006E8006734203469346E3420344534453450340A
:1006F80052344F344D3420342E342E342E340A34B0
:1007080000340A344434753461346C34413455341B
:1007180058342C346834773431342E3430342C3413
:100728007334773431342E3430340A340D34003491
:10073800F100310015179101703092007108930093
:10074800151595128B1355309600AA3096009514FE
:100758009518AF2BB02BAC2B8B1715110800F10097
:10076800BF2B20000E0E0139F200C72B20000C0809
:100778000139F200C72B7108003A0319B52B013A69
:100788000319BA2BC72B7208080021008E100E150A
:1007980014303D00A10012303C00A40023009F1536
:1007A8001E159C0167309B009D179E161D16210083
:1007B800911611120800533465346C34653463346F
:1007C80074346534643420346334683461346E348A
:1007D8006E3465346C343A34203400340A34573477
:1007E80072346F346E346734203463346F346D344C
:1007F8006D3461346E34643421340A3400340A347C
:100808004334483430342034733465346C346534BC
:10081800633474346534643421340A3400340A345B
:100828004334483431342034733465346C3465349B
:10083800633474346534643421340A340034210058
:100848000E160C1424000C140E1627001214181679
:100858001110171213101912210010160800310078
:100868001517910170309200151415183C2C3D2C69
:10087800392C1308F10071080800F1002000111E3E
:10088800462C472C422C710823009A00080030306F
:1008980020009B0099019A011110210011140800F1
:1008A80020001B10F8019A01990111101B1408006F
:1008B8002A34493444344E343F340A340034210055
:1008C8008E128E1122008E128E11080021000E1039
:1008D8000C1122000C110E1008002A345234533423
:1008E80054340A340034640080010131890B782CB7
:1008F80000344334483430340A3400344334483400
:1009080031340A340034433448343F340A34003430
:020918000234A7
:020000040001F9
:04000E00EA3FF13F95
:02001400FF3FAC
:00000001FF
